{
  "contractName": "LostBaggageClaim",
  "abi": [
    {
      "constant": false,
      "inputs": [],
      "name": "kill",
      "outputs": [],
      "payable": false,
      "stateMutability": "nonpayable",
      "type": "function"
    },
    {
      "constant": true,
      "inputs": [
        {
          "name": "",
          "type": "uint256"
        }
      ],
      "name": "addressList",
      "outputs": [
        {
          "name": "",
          "type": "address"
        }
      ],
      "payable": false,
      "stateMutability": "view",
      "type": "function"
    },
    {
      "constant": true,
      "inputs": [
        {
          "name": "",
          "type": "address"
        }
      ],
      "name": "myAddressMapping",
      "outputs": [
        {
          "name": "contractName",
          "type": "string"
        },
        {
          "name": "permissionLevel",
          "type": "uint256"
        }
      ],
      "payable": false,
      "stateMutability": "view",
      "type": "function"
    },
    {
      "inputs": [],
      "payable": false,
      "stateMutability": "nonpayable",
      "type": "constructor"
    },
    {
      "anonymous": false,
      "inputs": [
        {
          "indexed": true,
          "name": "_from",
          "type": "address"
        }
      ],
      "name": "ClaimRequested",
      "type": "event"
    },
    {
      "anonymous": false,
      "inputs": [
        {
          "indexed": true,
          "name": "addressAdded",
          "type": "address"
        },
        {
          "indexed": false,
          "name": "contractName",
          "type": "string"
        },
        {
          "indexed": false,
          "name": "permissionLevel",
          "type": "uint256"
        }
      ],
      "name": "AddressAdded",
      "type": "event"
    },
    {
      "constant": false,
      "inputs": [
        {
          "name": "baggageId",
          "type": "string"
        },
        {
          "name": "recordLocator",
          "type": "string"
        }
      ],
      "name": "requestClaim",
      "outputs": [
        {
          "name": "sufficient",
          "type": "bool"
        }
      ],
      "payable": false,
      "stateMutability": "nonpayable",
      "type": "function"
    },
    {
      "constant": false,
      "inputs": [
        {
          "name": "addressAdded",
          "type": "address"
        },
        {
          "name": "contractName",
          "type": "string"
        },
        {
          "name": "permissionLevel",
          "type": "uint256"
        }
      ],
      "name": "addAddressToNetwork",
      "outputs": [
        {
          "name": "status",
          "type": "bool"
        }
      ],
      "payable": false,
      "stateMutability": "nonpayable",
      "type": "function"
    },
    {
      "constant": false,
      "inputs": [],
      "name": "size",
      "outputs": [
        {
          "name": "",
          "type": "uint256"
        }
      ],
      "payable": false,
      "stateMutability": "nonpayable",
      "type": "function"
    }
  ],
  "bytecode": "0x608060405234801561001057600080fd5b50336000806101000a81548173ffffffffffffffffffffffffffffffffffffffff021916908373ffffffffffffffffffffffffffffffffffffffff16021790555061081c806100606000396000f300608060405260043610610078576000357c0100000000000000000000000000000000000000000000000000000000900463ffffffff16806304cedce71461007d57806341c0e1b514610144578063761d05e91461015b578063949d225d14610206578063b810fb4314610231578063b92ba3b81461029e575b600080fd5b34801561008957600080fd5b5061012a600480360381019080803590602001908201803590602001908080601f0160208091040260200160405190810160405280939291908181526020018383808284378201915050505050509192919290803590602001908201803590602001908080601f0160208091040260200160405190810160405280939291908181526020018383808284378201915050505050509192919290505050610361565b604051808215151515815260200191505060405180910390f35b34801561015057600080fd5b50610159610404565b005b34801561016757600080fd5b506101ec600480360381019080803573ffffffffffffffffffffffffffffffffffffffff169060200190929190803590602001908201803590602001908080601f016020809104026020016040519081016040528093929190818152602001838380828437820191505050505050919291929080359060200190929190505050610498565b604051808215151515815260200191505060405180910390f35b34801561021257600080fd5b5061021b610644565b6040518082815260200191505060405180910390f35b34801561023d57600080fd5b5061025c60048036038101908080359060200190929190505050610651565b604051808273ffffffffffffffffffffffffffffffffffffffff1673ffffffffffffffffffffffffffffffffffffffff16815260200191505060405180910390f35b3480156102aa57600080fd5b506102df600480360381019080803573ffffffffffffffffffffffffffffffffffffffff16906020019092919050505061068f565b6040518080602001838152602001828103825284818151815260200191508051906020019080838360005b8381101561032557808201518184015260208101905061030a565b50505050905090810190601f1680156103525780820380516001836020036101000a031916815260200191505b50935050505060405180910390f35b60003373ffffffffffffffffffffffffffffffffffffffff167f4db40e774b0c18bfc5d62572b2fa6efe94ec09fbad164b9154c7116ec4a754e960405160405180910390a260018060003373ffffffffffffffffffffffffffffffffffffffff1673ffffffffffffffffffffffffffffffffffffffff1681526020019081526020016000206001015414156103f957600190506103fe565b600090505b92915050565b6000809054906101000a900473ffffffffffffffffffffffffffffffffffffffff1673ffffffffffffffffffffffffffffffffffffffff163373ffffffffffffffffffffffffffffffffffffffff161415610493576000809054906101000a900473ffffffffffffffffffffffffffffffffffffffff1673ffffffffffffffffffffffffffffffffffffffff16ff5b600080fd5b60008373ffffffffffffffffffffffffffffffffffffffff167fd86b40b3013127fa3ca7f7e609c0f7a8974ca08b21bbe1513f6a169d6cdec3f884846040518080602001838152602001828103825284818151815260200191508051906020019080838360005b8381101561051a5780820151818401526020810190506104ff565b50505050905090810190601f1680156105475780820380516001836020036101000a031916815260200191505b50935050505060405180910390a2604080519081016040528084815260200183815250600160008673ffffffffffffffffffffffffffffffffffffffff1673ffffffffffffffffffffffffffffffffffffffff16815260200190815260200160002060008201518160000190805190602001906105c592919061074b565b506020820151816001015590505060028490806001815401808255809150509060018203906000526020600020016000909192909190916101000a81548173ffffffffffffffffffffffffffffffffffffffff021916908373ffffffffffffffffffffffffffffffffffffffff16021790555050600190509392505050565b6000600280549050905090565b60028181548110151561066057fe5b906000526020600020016000915054906101000a900473ffffffffffffffffffffffffffffffffffffffff1681565b6001602052806000526040600020600091509050806000018054600181600116156101000203166002900480601f01602080910402602001604051908101604052809291908181526020018280546001816001161561010002031660029004801561073b5780601f106107105761010080835404028352916020019161073b565b820191906000526020600020905b81548152906001019060200180831161071e57829003601f168201915b5050505050908060010154905082565b828054600181600116156101000203166002900490600052602060002090601f016020900481019282601f1061078c57805160ff19168380011785556107ba565b828001600101855582156107ba579182015b828111156107b957825182559160200191906001019061079e565b5b5090506107c791906107cb565b5090565b6107ed91905b808211156107e95760008160009055506001016107d1565b5090565b905600a165627a7a723058209febfa646d4dd80548f1a2612cabc69b7794633f6290913daa39b78bdbca975e0029",
  "source": "pragma solidity ^0.4.24;\n\nimport \"./ConvertLib.sol\";\nimport \"./Mortal.sol\";\n\n\ncontract LostBaggageClaim is Mortal{\n\t\n\tmapping(address => Permission) public myAddressMapping;\n\taddress[] public addressList;\n    \n    struct Permission {\n        string contractName;\n        uint permissionLevel;\n    }\n    \n\n\t//event ClaimRequested(address indexed _from, string contractName, uint permissionLevel);\n\tevent ClaimRequested(address indexed _from);\n\tevent AddressAdded(address indexed addressAdded, string contractName, uint permissionLevel);\n\n\tconstructor() public {\n\t\t//balances[tx.origin] = 10000;\n\t}\n\n\tfunction requestClaim(string baggageId, string recordLocator) public returns(bool sufficient) {\n\t\temit ClaimRequested(msg.sender);\n\t\tif (myAddressMapping[msg.sender].permissionLevel==1) { //check each contractName and its permissions\n\t\t\t//emit ClaimRequested(msg.sender, myAddressMapping[msg.sender].contractName, myAddressMapping[msg.sender].permissionLevel);\n\t\t\treturn true;\n\t\t} else {\n\t\t\treturn false;\n\t\t}\n\t}\n\n\t/*function getBalanceInEth(address addr) public view returns(uint){\n\t\treturn ConvertLib.convert(getBalance(addr),2);\n\t}\n\n\tfunction getBalance(address addr) public view returns(uint) {\n\t\treturn balances[addr];\n\t}*/\n\n\tfunction addAddressToNetwork(address addressAdded, string contractName, uint permissionLevel) public returns(bool status){\n\t\temit AddressAdded(addressAdded, contractName, permissionLevel);\n\t\tmyAddressMapping[addressAdded] = Permission(contractName, permissionLevel); \n\t\taddressList.push(addressAdded);\n\t\treturn true;\n\t}\n\n\t// Requires a public getter for array size\n\tfunction size() public returns (uint) {\n\t    return addressList.length;\n\t}\n}\n",
  "sourcePath": "/Users/wjose/workspace/blockchain/acko-hack/TI-platform/contracts/LostBaggageClaim.sol",
  "compiler": {
    "name": "solc",
    "version": "0.4.24+commit.e67f0147.Emscripten.clang"
  },
  "schemaVersion": "2.0.1",
  "updatedAt": "2018-12-16T05:02:42.706Z"
}